{
  "contractName": "Exchange",
  "abi": [
    {
      "inputs": [
        {
          "internalType": "address",
          "name": "_feeAccount",
          "type": "address"
        },
        {
          "internalType": "uint256",
          "name": "_feePercent",
          "type": "uint256"
        }
      ],
      "stateMutability": "nonpayable",
      "type": "constructor"
    },
    {
      "anonymous": false,
      "inputs": [
        {
          "indexed": true,
          "internalType": "address",
          "name": "token",
          "type": "address"
        },
        {
          "indexed": true,
          "internalType": "address",
          "name": "msgSender",
          "type": "address"
        },
        {
          "indexed": false,
          "internalType": "uint256",
          "name": "amount",
          "type": "uint256"
        },
        {
          "indexed": false,
          "internalType": "uint256",
          "name": "balance",
          "type": "uint256"
        }
      ],
      "name": "Deposit",
      "type": "event"
    },
    {
      "anonymous": false,
      "inputs": [
        {
          "indexed": false,
          "internalType": "uint256",
          "name": "id",
          "type": "uint256"
        },
        {
          "indexed": false,
          "internalType": "address",
          "name": "user",
          "type": "address"
        },
        {
          "indexed": false,
          "internalType": "address",
          "name": "tokenGet",
          "type": "address"
        },
        {
          "indexed": false,
          "internalType": "uint256",
          "name": "amountGet",
          "type": "uint256"
        },
        {
          "indexed": false,
          "internalType": "address",
          "name": "tokenGive",
          "type": "address"
        },
        {
          "indexed": false,
          "internalType": "uint256",
          "name": "amountGive",
          "type": "uint256"
        },
        {
          "indexed": false,
          "internalType": "uint256",
          "name": "timestamp",
          "type": "uint256"
        }
      ],
      "name": "Order",
      "type": "event"
    },
    {
      "anonymous": false,
      "inputs": [
        {
          "indexed": true,
          "internalType": "address",
          "name": "token",
          "type": "address"
        },
        {
          "indexed": true,
          "internalType": "address",
          "name": "user",
          "type": "address"
        },
        {
          "indexed": false,
          "internalType": "uint256",
          "name": "amount",
          "type": "uint256"
        },
        {
          "indexed": false,
          "internalType": "uint256",
          "name": "balance",
          "type": "uint256"
        }
      ],
      "name": "Withdraw",
      "type": "event"
    },
    {
      "stateMutability": "nonpayable",
      "type": "fallback"
    },
    {
      "inputs": [],
      "name": "feeAccount",
      "outputs": [
        {
          "internalType": "address",
          "name": "",
          "type": "address"
        }
      ],
      "stateMutability": "view",
      "type": "function"
    },
    {
      "inputs": [],
      "name": "feePercent",
      "outputs": [
        {
          "internalType": "uint256",
          "name": "",
          "type": "uint256"
        }
      ],
      "stateMutability": "view",
      "type": "function"
    },
    {
      "inputs": [],
      "name": "orderCount",
      "outputs": [
        {
          "internalType": "uint256",
          "name": "",
          "type": "uint256"
        }
      ],
      "stateMutability": "view",
      "type": "function"
    },
    {
      "inputs": [
        {
          "internalType": "uint256",
          "name": "",
          "type": "uint256"
        }
      ],
      "name": "orders",
      "outputs": [
        {
          "internalType": "uint256",
          "name": "id",
          "type": "uint256"
        },
        {
          "internalType": "address",
          "name": "user",
          "type": "address"
        },
        {
          "internalType": "address",
          "name": "tokenGet",
          "type": "address"
        },
        {
          "internalType": "uint256",
          "name": "amountGet",
          "type": "uint256"
        },
        {
          "internalType": "address",
          "name": "tokenGive",
          "type": "address"
        },
        {
          "internalType": "uint256",
          "name": "amountGive",
          "type": "uint256"
        },
        {
          "internalType": "uint256",
          "name": "timestamp",
          "type": "uint256"
        }
      ],
      "stateMutability": "view",
      "type": "function"
    },
    {
      "inputs": [
        {
          "internalType": "address",
          "name": "",
          "type": "address"
        },
        {
          "internalType": "address",
          "name": "",
          "type": "address"
        }
      ],
      "name": "trackDeposit",
      "outputs": [
        {
          "internalType": "uint256",
          "name": "",
          "type": "uint256"
        }
      ],
      "stateMutability": "view",
      "type": "function"
    },
    {
      "inputs": [],
      "name": "depositEther",
      "outputs": [],
      "stateMutability": "payable",
      "type": "function"
    },
    {
      "inputs": [
        {
          "internalType": "uint256",
          "name": "_amount",
          "type": "uint256"
        }
      ],
      "name": "withdrawEther",
      "outputs": [],
      "stateMutability": "payable",
      "type": "function"
    },
    {
      "inputs": [
        {
          "internalType": "address",
          "name": "_token",
          "type": "address"
        },
        {
          "internalType": "uint256",
          "name": "_amount",
          "type": "uint256"
        }
      ],
      "name": "depositToken",
      "outputs": [],
      "stateMutability": "nonpayable",
      "type": "function"
    },
    {
      "inputs": [
        {
          "internalType": "address",
          "name": "_token",
          "type": "address"
        },
        {
          "internalType": "uint256",
          "name": "_amount",
          "type": "uint256"
        }
      ],
      "name": "withdrawToken",
      "outputs": [],
      "stateMutability": "nonpayable",
      "type": "function"
    },
    {
      "inputs": [
        {
          "internalType": "address",
          "name": "_token",
          "type": "address"
        },
        {
          "internalType": "address",
          "name": "_user",
          "type": "address"
        }
      ],
      "name": "balanceOf",
      "outputs": [
        {
          "internalType": "uint256",
          "name": "",
          "type": "uint256"
        }
      ],
      "stateMutability": "view",
      "type": "function"
    },
    {
      "inputs": [
        {
          "internalType": "address",
          "name": "_tokenGet",
          "type": "address"
        },
        {
          "internalType": "uint256",
          "name": "_amountGet",
          "type": "uint256"
        },
        {
          "internalType": "address",
          "name": "_tokenGive",
          "type": "address"
        },
        {
          "internalType": "uint256",
          "name": "_amountGive",
          "type": "uint256"
        }
      ],
      "name": "makeOrder",
      "outputs": [],
      "stateMutability": "nonpayable",
      "type": "function"
    }
  ],
  "bytecode": "0x60806040523480156200001157600080fd5b5060405162001903380380620019038339818101604052810190620000379190620000b4565b816000806101000a81548173ffffffffffffffffffffffffffffffffffffffff021916908373ffffffffffffffffffffffffffffffffffffffff16021790555080600181905550505062000167565b600081519050620000978162000133565b92915050565b600081519050620000ae816200014d565b92915050565b60008060408385031215620000c857600080fd5b6000620000d88582860162000086565b9250506020620000eb858286016200009d565b9150509250929050565b6000620001028262000109565b9050919050565b600073ffffffffffffffffffffffffffffffffffffffff82169050919050565b6000819050919050565b6200013e81620000f5565b81146200014a57600080fd5b50565b620001588162000129565b81146200016457600080fd5b50565b61178c80620001776000396000f3fe6080604052600436106100a05760003560e01c80637fd6f15c116100645780637fd6f15c1461018b57806398ea5fca146101b65780639a5c90aa146101c05780639e281a98146101e9578063a85c38ef14610212578063f7888aec14610255576100a1565b80632453ffa8146100b3578063338b5dea146100de5780633bed33ce1461010757806365e17c9d146101235780637a2f96411461014e576100a1565b5b3480156100ad57600080fd5b50600080fd5b3480156100bf57600080fd5b506100c8610292565b6040516100d591906114a8565b60405180910390f35b3480156100ea57600080fd5b5061010560048036038101906101009190611212565b610298565b005b610121600480360381019061011c91906112da565b61051e565b005b34801561012f57600080fd5b5061013861081a565b60405161014591906113ad565b60405180910390f35b34801561015a57600080fd5b50610175600480360381019061017091906111d6565b61083e565b60405161018291906114a8565b60405180910390f35b34801561019757600080fd5b506101a0610863565b6040516101ad91906114a8565b60405180910390f35b6101be610869565b005b3480156101cc57600080fd5b506101e760048036038101906101e2919061124e565b610a5e565b005b3480156101f557600080fd5b50610210600480360381019061020b9190611212565b610c51565b005b34801561021e57600080fd5b50610239600480360381019061023491906112da565b611042565b60405161024c97969594939291906114c3565b60405180910390f35b34801561026157600080fd5b5061027c600480360381019061027791906111d6565b6110e4565b60405161028991906114a8565b60405180910390f35b60025481565b8173ffffffffffffffffffffffffffffffffffffffff166323b872dd3330846040518463ffffffff1660e01b81526004016102d5939291906113c8565b602060405180830381600087803b1580156102ef57600080fd5b505af1158015610303573d6000803e3d6000fd5b505050506040513d601f19601f8201168201806040525081019061032791906112b1565b506103b781600360008573ffffffffffffffffffffffffffffffffffffffff1673ffffffffffffffffffffffffffffffffffffffff16815260200190815260200160002060003373ffffffffffffffffffffffffffffffffffffffff1673ffffffffffffffffffffffffffffffffffffffff1681526020019081526020016000205461116b90919063ffffffff16565b600360008473ffffffffffffffffffffffffffffffffffffffff1673ffffffffffffffffffffffffffffffffffffffff16815260200190815260200160002060003373ffffffffffffffffffffffffffffffffffffffff1673ffffffffffffffffffffffffffffffffffffffff168152602001908152602001600020819055503373ffffffffffffffffffffffffffffffffffffffff168273ffffffffffffffffffffffffffffffffffffffff167fdcbc1c05240f31ff3ad067ef1ee35ce4997762752e3a095284754544f4c709d783600360008773ffffffffffffffffffffffffffffffffffffffff1673ffffffffffffffffffffffffffffffffffffffff16815260200190815260200160002060003373ffffffffffffffffffffffffffffffffffffffff1673ffffffffffffffffffffffffffffffffffffffff16815260200190815260200160002054604051610512929190611532565b60405180910390a35050565b80600360008073ffffffffffffffffffffffffffffffffffffffff1673ffffffffffffffffffffffffffffffffffffffff16815260200190815260200160002060003373ffffffffffffffffffffffffffffffffffffffff1673ffffffffffffffffffffffffffffffffffffffff1681526020019081526020016000205410156105dd576040517f08c379a00000000000000000000000000000000000000000000000000000000081526004016105d490611448565b60405180910390fd5b61066c81600360008073ffffffffffffffffffffffffffffffffffffffff1673ffffffffffffffffffffffffffffffffffffffff16815260200190815260200160002060003373ffffffffffffffffffffffffffffffffffffffff1673ffffffffffffffffffffffffffffffffffffffff1681526020019081526020016000205461118190919063ffffffff16565b600360008073ffffffffffffffffffffffffffffffffffffffff1673ffffffffffffffffffffffffffffffffffffffff16815260200190815260200160002060003373ffffffffffffffffffffffffffffffffffffffff1673ffffffffffffffffffffffffffffffffffffffff168152602001908152602001600020819055503373ffffffffffffffffffffffffffffffffffffffff166108fc829081150290604051600060405180830381858888f19350505050158015610732573d6000803e3d6000fd5b503373ffffffffffffffffffffffffffffffffffffffff16600073ffffffffffffffffffffffffffffffffffffffff167ff341246adaac6f497bc2a656f546ab9e182111d630394f0c57c710a59a2cb56783600360008073ffffffffffffffffffffffffffffffffffffffff1673ffffffffffffffffffffffffffffffffffffffff16815260200190815260200160002060003373ffffffffffffffffffffffffffffffffffffffff1673ffffffffffffffffffffffffffffffffffffffff1681526020019081526020016000205460405161080f929190611532565b60405180910390a350565b60008054906101000a900473ffffffffffffffffffffffffffffffffffffffff1681565b6003602052816000526040600020602052806000526040600020600091509150505481565b60015481565b6108f834600360008073ffffffffffffffffffffffffffffffffffffffff1673ffffffffffffffffffffffffffffffffffffffff16815260200190815260200160002060003373ffffffffffffffffffffffffffffffffffffffff1673ffffffffffffffffffffffffffffffffffffffff1681526020019081526020016000205461116b90919063ffffffff16565b600360008073ffffffffffffffffffffffffffffffffffffffff1673ffffffffffffffffffffffffffffffffffffffff16815260200190815260200160002060003373ffffffffffffffffffffffffffffffffffffffff1673ffffffffffffffffffffffffffffffffffffffff168152602001908152602001600020819055503373ffffffffffffffffffffffffffffffffffffffff16600073ffffffffffffffffffffffffffffffffffffffff167fdcbc1c05240f31ff3ad067ef1ee35ce4997762752e3a095284754544f4c709d734600360008073ffffffffffffffffffffffffffffffffffffffff1673ffffffffffffffffffffffffffffffffffffffff16815260200190815260200160002060003373ffffffffffffffffffffffffffffffffffffffff1673ffffffffffffffffffffffffffffffffffffffff16815260200190815260200160002054604051610a54929190611532565b60405180910390a3565b610a74600160025461116b90919063ffffffff16565b6002819055506040518060e0016040528060025481526020013373ffffffffffffffffffffffffffffffffffffffff1681526020018573ffffffffffffffffffffffffffffffffffffffff1681526020018481526020018373ffffffffffffffffffffffffffffffffffffffff168152602001828152602001428152506004600060025481526020019081526020016000206000820151816000015560208201518160010160006101000a81548173ffffffffffffffffffffffffffffffffffffffff021916908373ffffffffffffffffffffffffffffffffffffffff16021790555060408201518160020160006101000a81548173ffffffffffffffffffffffffffffffffffffffff021916908373ffffffffffffffffffffffffffffffffffffffff1602179055506060820151816003015560808201518160040160006101000a81548173ffffffffffffffffffffffffffffffffffffffff021916908373ffffffffffffffffffffffffffffffffffffffff16021790555060a0820151816005015560c082015181600601559050507f9d33853d43e3607b4cc01fdc78338ff2dca6fef7db9232dae6d3eb55fbc3b109600254338686868642604051610c4397969594939291906114c3565b60405180910390a150505050565b600073ffffffffffffffffffffffffffffffffffffffff168273ffffffffffffffffffffffffffffffffffffffff161415610cc1576040517f08c379a0000000000000000000000000000000000000000000000000000000008152600401610cb890611488565b60405180910390fd5b80600360008473ffffffffffffffffffffffffffffffffffffffff1673ffffffffffffffffffffffffffffffffffffffff16815260200190815260200160002060003373ffffffffffffffffffffffffffffffffffffffff1673ffffffffffffffffffffffffffffffffffffffff168152602001908152602001600020541015610d80576040517f08c379a0000000000000000000000000000000000000000000000000000000008152600401610d7790611468565b60405180910390fd5b610e0f81600360008573ffffffffffffffffffffffffffffffffffffffff1673ffffffffffffffffffffffffffffffffffffffff16815260200190815260200160002060003373ffffffffffffffffffffffffffffffffffffffff1673ffffffffffffffffffffffffffffffffffffffff1681526020019081526020016000205461118190919063ffffffff16565b600360008473ffffffffffffffffffffffffffffffffffffffff1673ffffffffffffffffffffffffffffffffffffffff16815260200190815260200160002060003373ffffffffffffffffffffffffffffffffffffffff1673ffffffffffffffffffffffffffffffffffffffff168152602001908152602001600020819055508173ffffffffffffffffffffffffffffffffffffffff1663a9059cbb33836040518363ffffffff1660e01b8152600401610eca9291906113ff565b602060405180830381600087803b158015610ee457600080fd5b505af1158015610ef8573d6000803e3d6000fd5b505050506040513d601f19601f82011682018060405250810190610f1c91906112b1565b610f5b576040517f08c379a0000000000000000000000000000000000000000000000000000000008152600401610f5290611428565b60405180910390fd5b3373ffffffffffffffffffffffffffffffffffffffff168273ffffffffffffffffffffffffffffffffffffffff167ff341246adaac6f497bc2a656f546ab9e182111d630394f0c57c710a59a2cb56783600360008773ffffffffffffffffffffffffffffffffffffffff1673ffffffffffffffffffffffffffffffffffffffff16815260200190815260200160002060003373ffffffffffffffffffffffffffffffffffffffff1673ffffffffffffffffffffffffffffffffffffffff16815260200190815260200160002054604051611036929190611532565b60405180910390a35050565b60046020528060005260406000206000915090508060000154908060010160009054906101000a900473ffffffffffffffffffffffffffffffffffffffff16908060020160009054906101000a900473ffffffffffffffffffffffffffffffffffffffff16908060030154908060040160009054906101000a900473ffffffffffffffffffffffffffffffffffffffff16908060050154908060060154905087565b6000600360008473ffffffffffffffffffffffffffffffffffffffff1673ffffffffffffffffffffffffffffffffffffffff16815260200190815260200160002060008373ffffffffffffffffffffffffffffffffffffffff1673ffffffffffffffffffffffffffffffffffffffff16815260200190815260200160002054905092915050565b60008183611179919061156c565b905092915050565b6000818361118f91906115c2565b905092915050565b6000813590506111a681611711565b92915050565b6000815190506111bb81611728565b92915050565b6000813590506111d08161173f565b92915050565b600080604083850312156111e957600080fd5b60006111f785828601611197565b925050602061120885828601611197565b9150509250929050565b6000806040838503121561122557600080fd5b600061123385828601611197565b9250506020611244858286016111c1565b9150509250929050565b6000806000806080858703121561126457600080fd5b600061127287828801611197565b9450506020611283878288016111c1565b935050604061129487828801611197565b92505060606112a5878288016111c1565b91505092959194509250565b6000602082840312156112c357600080fd5b60006112d1848285016111ac565b91505092915050565b6000602082840312156112ec57600080fd5b60006112fa848285016111c1565b91505092915050565b61130c816115f6565b82525050565b600061131f60068361155b565b915061132a8261166d565b602082019050919050565b600061134260138361155b565b915061134d82611696565b602082019050919050565b600061136560148361155b565b9150611370826116bf565b602082019050919050565b600061138860198361155b565b9150611393826116e8565b602082019050919050565b6113a781611634565b82525050565b60006020820190506113c26000830184611303565b92915050565b60006060820190506113dd6000830186611303565b6113ea6020830185611303565b6113f7604083018461139e565b949350505050565b60006040820190506114146000830185611303565b611421602083018461139e565b9392505050565b6000602082019050818103600083015261144181611312565b9050919050565b6000602082019050818103600083015261146181611335565b9050919050565b6000602082019050818103600083015261148181611358565b9050919050565b600060208201905081810360008301526114a18161137b565b9050919050565b60006020820190506114bd600083018461139e565b92915050565b600060e0820190506114d8600083018a61139e565b6114e56020830189611303565b6114f26040830188611303565b6114ff606083018761139e565b61150c6080830186611303565b61151960a083018561139e565b61152660c083018461139e565b98975050505050505050565b6000604082019050611547600083018561139e565b611554602083018461139e565b9392505050565b600082825260208201905092915050565b600061157782611634565b915061158283611634565b9250827fffffffffffffffffffffffffffffffffffffffffffffffffffffffffffffffff038211156115b7576115b661163e565b5b828201905092915050565b60006115cd82611634565b91506115d883611634565b9250828210156115eb576115ea61163e565b5b828203905092915050565b600061160182611614565b9050919050565b60008115159050919050565b600073ffffffffffffffffffffffffffffffffffffffff82169050919050565b6000819050919050565b7f4e487b7100000000000000000000000000000000000000000000000000000000600052601160045260246000fd5b7f64656e6965640000000000000000000000000000000000000000000000000000600082015250565b7f696e737566666963656e742062616c616e636500000000000000000000000000600082015250565b7f696e73756666696369656e742062616c616e6365000000000000000000000000600082015250565b7f796f752063616e6e6f7420776974686472617720657468657200000000000000600082015250565b61171a816115f6565b811461172557600080fd5b50565b61173181611608565b811461173c57600080fd5b50565b61174881611634565b811461175357600080fd5b5056fea2646970667358221220005f9340c7ce1a817bed1ce6b96cf867c0a3c90624d1f334c9c16547fee0ee1964736f6c63430008040033",
  "immutableReferences": {},
  "source": "pragma solidity 0.8.4;\n\nimport \"./Token.sol\";\nimport \"@openzeppelin/contracts/utils/math/SafeMath.sol\";\n\n\ncontract Exchange {\n        using SafeMath for uint;\n\n        address public feeAccount;\n        uint256 public feePercent;\n        uint256 public orderCount;\n        address constant ETHER = address(0);\n\n    struct _Order {\n        uint256 id; \n        address user; //person who made the order\n        address tokenGet; //token they want to purchase\n        uint256 amountGet; //amount of token user wants to get\n        address tokenGive; //token they will use in the trade i.e token they will give\n        uint256 amountGive; // the amount they will give\n        uint256 timestamp; // the actual time the order was created\n            }    \n\n    mapping(address => mapping(address => uint256)) public trackDeposit;\n    mapping(uint256 => _Order) public orders;\n\n    event Deposit(address indexed token, address indexed msgSender, uint256 amount, uint256 balance);\n    event Withdraw(address indexed token, address indexed user, uint256 amount, uint256 balance);\n    event Order(\n        uint256 id,\n        address user,\n        address tokenGet,\n        uint256 amountGet,\n        address tokenGive,\n        uint256 amountGive,\n        uint256 timestamp\n    );\n\n    constructor (address _feeAccount, uint256 _feePercent) {\n        feeAccount = _feeAccount;\n        feePercent = _feePercent;\n    }\n\n    fallback() external {\n        revert();\n    }\n\n    function depositEther() payable external {\n        trackDeposit[ETHER][msg.sender] = trackDeposit[ETHER][msg.sender].add(msg.value);\n        emit Deposit(ETHER, msg.sender, msg.value, trackDeposit[ETHER][msg.sender]);\n    }\n\n    function withdrawEther(uint _amount) payable external {\n        require(trackDeposit[ETHER][msg.sender] >= _amount, \"insufficent balance\");\n        trackDeposit[ETHER][msg.sender] = trackDeposit[ETHER][msg.sender].sub(_amount);\n        payable (msg.sender).transfer(_amount);\n        emit Withdraw(ETHER, msg.sender, _amount, trackDeposit[ETHER][msg.sender]);\n    }\n\n    function depositToken(address _token, uint256 _amount) external {\n        Token(_token).transferFrom(msg.sender, address(this), _amount);\n        trackDeposit[_token][msg.sender] = trackDeposit[_token][msg.sender].add(_amount); \n        emit Deposit(_token, msg.sender, _amount, trackDeposit[_token][msg.sender]);\n    }\n\n    function withdrawToken(address _token, uint256 _amount) external {\n        require(_token != ETHER, \"you cannot withdraw ether\");\n        require(trackDeposit[_token][msg.sender] >= _amount, \"insufficient balance\");\n        trackDeposit[_token][msg.sender] = trackDeposit[_token][msg.sender].sub(_amount);\n        require(Token(_token).transfer(msg.sender, _amount), \"denied\");\n        emit Withdraw(_token, msg.sender, _amount, trackDeposit[_token][msg.sender]);\n    }\n\n    function balanceOf(address _token, address _user) external view returns (uint256) {\n        return trackDeposit[_token][_user];\n    }\n\n    function makeOrder(address _tokenGet, uint256 _amountGet, address _tokenGive, uint256 _amountGive) external {\n        orderCount = orderCount.add(1);\n        orders[orderCount] = _Order(orderCount, msg.sender, _tokenGet, _amountGet, _tokenGive, _amountGive, block.timestamp);\n        emit Order(orderCount, msg.sender, _tokenGet, _amountGet, _tokenGive, _amountGive, block.timestamp);\n    }\n}",
  "sourcePath": "/home/favourite/Desktop/workspace/Me/bootcamp/blockchain/src/contracts/Exchange.sol",
  "compiler": {
    "name": "solc",
    "version": "0.8.4+commit.c7e474f2.Emscripten.clang"
  },
  "schemaVersion": "3.4.7",
  "updatedAt": "2022-07-16T00:22:39.492Z",
  "devdoc": {
    "kind": "dev",
    "methods": {},
    "version": 1
  },
  "userdoc": {
    "kind": "user",
    "methods": {},
    "version": 1
  }
}