{
  "contractName": "Exchange",
  "abi": [
    {
      "inputs": [
        {
          "internalType": "address",
          "name": "_feeAccount",
          "type": "address"
        },
        {
          "internalType": "uint256",
          "name": "_feePercent",
          "type": "uint256"
        }
      ],
      "stateMutability": "nonpayable",
      "type": "constructor"
    },
    {
      "anonymous": false,
      "inputs": [
        {
          "indexed": false,
          "internalType": "uint256",
          "name": "id",
          "type": "uint256"
        },
        {
          "indexed": false,
          "internalType": "address",
          "name": "user",
          "type": "address"
        },
        {
          "indexed": false,
          "internalType": "address",
          "name": "tokenGet",
          "type": "address"
        },
        {
          "indexed": false,
          "internalType": "uint256",
          "name": "amountGet",
          "type": "uint256"
        },
        {
          "indexed": false,
          "internalType": "address",
          "name": "tokenGive",
          "type": "address"
        },
        {
          "indexed": false,
          "internalType": "uint256",
          "name": "amountGive",
          "type": "uint256"
        },
        {
          "indexed": false,
          "internalType": "uint256",
          "name": "timestamp",
          "type": "uint256"
        }
      ],
      "name": "Cancel",
      "type": "event"
    },
    {
      "anonymous": false,
      "inputs": [
        {
          "indexed": true,
          "internalType": "address",
          "name": "token",
          "type": "address"
        },
        {
          "indexed": true,
          "internalType": "address",
          "name": "msgSender",
          "type": "address"
        },
        {
          "indexed": false,
          "internalType": "uint256",
          "name": "amount",
          "type": "uint256"
        },
        {
          "indexed": false,
          "internalType": "uint256",
          "name": "balance",
          "type": "uint256"
        }
      ],
      "name": "Deposit",
      "type": "event"
    },
    {
      "anonymous": false,
      "inputs": [
        {
          "indexed": false,
          "internalType": "uint256",
          "name": "id",
          "type": "uint256"
        },
        {
          "indexed": false,
          "internalType": "address",
          "name": "user",
          "type": "address"
        },
        {
          "indexed": false,
          "internalType": "address",
          "name": "tokenGet",
          "type": "address"
        },
        {
          "indexed": false,
          "internalType": "uint256",
          "name": "amountGet",
          "type": "uint256"
        },
        {
          "indexed": false,
          "internalType": "address",
          "name": "tokenGive",
          "type": "address"
        },
        {
          "indexed": false,
          "internalType": "uint256",
          "name": "amountGive",
          "type": "uint256"
        },
        {
          "indexed": false,
          "internalType": "uint256",
          "name": "timestamp",
          "type": "uint256"
        }
      ],
      "name": "Order",
      "type": "event"
    },
    {
      "anonymous": false,
      "inputs": [
        {
          "indexed": false,
          "internalType": "uint256",
          "name": "id",
          "type": "uint256"
        },
        {
          "indexed": false,
          "internalType": "address",
          "name": "user",
          "type": "address"
        },
        {
          "indexed": false,
          "internalType": "address",
          "name": "tokenGet",
          "type": "address"
        },
        {
          "indexed": false,
          "internalType": "uint256",
          "name": "amountGet",
          "type": "uint256"
        },
        {
          "indexed": false,
          "internalType": "address",
          "name": "tokenGive",
          "type": "address"
        },
        {
          "indexed": false,
          "internalType": "uint256",
          "name": "amountGive",
          "type": "uint256"
        },
        {
          "indexed": false,
          "internalType": "address",
          "name": "userFill",
          "type": "address"
        },
        {
          "indexed": false,
          "internalType": "uint256",
          "name": "timestamp",
          "type": "uint256"
        }
      ],
      "name": "Trade",
      "type": "event"
    },
    {
      "anonymous": false,
      "inputs": [
        {
          "indexed": true,
          "internalType": "address",
          "name": "token",
          "type": "address"
        },
        {
          "indexed": true,
          "internalType": "address",
          "name": "user",
          "type": "address"
        },
        {
          "indexed": false,
          "internalType": "uint256",
          "name": "amount",
          "type": "uint256"
        },
        {
          "indexed": false,
          "internalType": "uint256",
          "name": "balance",
          "type": "uint256"
        }
      ],
      "name": "Withdraw",
      "type": "event"
    },
    {
      "stateMutability": "nonpayable",
      "type": "fallback"
    },
    {
      "inputs": [],
      "name": "feeAccount",
      "outputs": [
        {
          "internalType": "address",
          "name": "",
          "type": "address"
        }
      ],
      "stateMutability": "view",
      "type": "function",
      "constant": true
    },
    {
      "inputs": [],
      "name": "feePercent",
      "outputs": [
        {
          "internalType": "uint256",
          "name": "",
          "type": "uint256"
        }
      ],
      "stateMutability": "view",
      "type": "function",
      "constant": true
    },
    {
      "inputs": [
        {
          "internalType": "uint256",
          "name": "",
          "type": "uint256"
        }
      ],
      "name": "orderCancelled",
      "outputs": [
        {
          "internalType": "bool",
          "name": "",
          "type": "bool"
        }
      ],
      "stateMutability": "view",
      "type": "function",
      "constant": true
    },
    {
      "inputs": [],
      "name": "orderCount",
      "outputs": [
        {
          "internalType": "uint256",
          "name": "",
          "type": "uint256"
        }
      ],
      "stateMutability": "view",
      "type": "function",
      "constant": true
    },
    {
      "inputs": [
        {
          "internalType": "uint256",
          "name": "",
          "type": "uint256"
        }
      ],
      "name": "orderFilled",
      "outputs": [
        {
          "internalType": "bool",
          "name": "",
          "type": "bool"
        }
      ],
      "stateMutability": "view",
      "type": "function",
      "constant": true
    },
    {
      "inputs": [
        {
          "internalType": "uint256",
          "name": "",
          "type": "uint256"
        }
      ],
      "name": "orders",
      "outputs": [
        {
          "internalType": "uint256",
          "name": "id",
          "type": "uint256"
        },
        {
          "internalType": "address",
          "name": "user",
          "type": "address"
        },
        {
          "internalType": "address",
          "name": "tokenGet",
          "type": "address"
        },
        {
          "internalType": "uint256",
          "name": "amountGet",
          "type": "uint256"
        },
        {
          "internalType": "address",
          "name": "tokenGive",
          "type": "address"
        },
        {
          "internalType": "uint256",
          "name": "amountGive",
          "type": "uint256"
        },
        {
          "internalType": "uint256",
          "name": "timestamp",
          "type": "uint256"
        }
      ],
      "stateMutability": "view",
      "type": "function",
      "constant": true
    },
    {
      "inputs": [
        {
          "internalType": "address",
          "name": "",
          "type": "address"
        },
        {
          "internalType": "address",
          "name": "",
          "type": "address"
        }
      ],
      "name": "trackDeposit",
      "outputs": [
        {
          "internalType": "uint256",
          "name": "",
          "type": "uint256"
        }
      ],
      "stateMutability": "view",
      "type": "function",
      "constant": true
    },
    {
      "inputs": [],
      "name": "depositEther",
      "outputs": [],
      "stateMutability": "payable",
      "type": "function",
      "payable": true
    },
    {
      "inputs": [
        {
          "internalType": "uint256",
          "name": "_amount",
          "type": "uint256"
        }
      ],
      "name": "withdrawEther",
      "outputs": [],
      "stateMutability": "payable",
      "type": "function",
      "payable": true
    },
    {
      "inputs": [
        {
          "internalType": "address",
          "name": "_token",
          "type": "address"
        },
        {
          "internalType": "uint256",
          "name": "_amount",
          "type": "uint256"
        }
      ],
      "name": "depositToken",
      "outputs": [],
      "stateMutability": "nonpayable",
      "type": "function"
    },
    {
      "inputs": [
        {
          "internalType": "address",
          "name": "_token",
          "type": "address"
        },
        {
          "internalType": "uint256",
          "name": "_amount",
          "type": "uint256"
        }
      ],
      "name": "withdrawToken",
      "outputs": [],
      "stateMutability": "nonpayable",
      "type": "function"
    },
    {
      "inputs": [
        {
          "internalType": "address",
          "name": "_token",
          "type": "address"
        },
        {
          "internalType": "address",
          "name": "_user",
          "type": "address"
        }
      ],
      "name": "balanceOf",
      "outputs": [
        {
          "internalType": "uint256",
          "name": "",
          "type": "uint256"
        }
      ],
      "stateMutability": "view",
      "type": "function",
      "constant": true
    },
    {
      "inputs": [
        {
          "internalType": "address",
          "name": "_tokenGet",
          "type": "address"
        },
        {
          "internalType": "uint256",
          "name": "_amountGet",
          "type": "uint256"
        },
        {
          "internalType": "address",
          "name": "_tokenGive",
          "type": "address"
        },
        {
          "internalType": "uint256",
          "name": "_amountGive",
          "type": "uint256"
        }
      ],
      "name": "makeOrder",
      "outputs": [],
      "stateMutability": "nonpayable",
      "type": "function"
    },
    {
      "inputs": [
        {
          "internalType": "uint256",
          "name": "_id",
          "type": "uint256"
        }
      ],
      "name": "cancelOrder",
      "outputs": [],
      "stateMutability": "nonpayable",
      "type": "function"
    },
    {
      "inputs": [
        {
          "internalType": "uint256",
          "name": "_id",
          "type": "uint256"
        }
      ],
      "name": "fillOrder",
      "outputs": [],
      "stateMutability": "nonpayable",
      "type": "function"
    }
  ],
  "bytecode": "0x60806040523480156200001157600080fd5b50604051620027b8380380620027b88339818101604052810190620000379190620000b4565b816000806101000a81548173ffffffffffffffffffffffffffffffffffffffff021916908373ffffffffffffffffffffffffffffffffffffffff16021790555080600181905550505062000167565b600081519050620000978162000133565b92915050565b600081519050620000ae816200014d565b92915050565b60008060408385031215620000c857600080fd5b6000620000d88582860162000086565b9250506020620000eb858286016200009d565b9150509250929050565b6000620001028262000109565b9050919050565b600073ffffffffffffffffffffffffffffffffffffffff82169050919050565b6000819050919050565b6200013e81620000f5565b81146200014a57600080fd5b50565b620001588162000129565b81146200016457600080fd5b50565b61264180620001776000396000f3fe6080604052600436106100ec5760003560e01c80637a2f96411161008a5780639e281a98116100595780639e281a98146102c4578063a85c38ef146102ed578063e9c1896614610330578063f7888aec1461036d576100ed565b80637a2f9641146102295780637fd6f15c1461026657806398ea5fca146102915780639a5c90aa1461029b576100ed565b80634a93e0da116100c65780634a93e0da1461016f578063514fcac7146101ac57806365e17c9d146101d557806367b830ad14610200576100ed565b80632453ffa8146100ff578063338b5dea1461012a5780633bed33ce14610153576100ed565b5b3480156100f957600080fd5b50600080fd5b34801561010b57600080fd5b506101146103aa565b6040516101219190612158565b60405180910390f35b34801561013657600080fd5b50610151600480360381019061014c9190611d49565b6103b0565b005b61016d60048036038101906101689190611e11565b610636565b005b34801561017b57600080fd5b5061019660048036038101906101919190611e11565b610932565b6040516101a3919061201d565b60405180910390f35b3480156101b857600080fd5b506101d360048036038101906101ce9190611e11565b610952565b005b3480156101e157600080fd5b506101ea610b08565b6040516101f79190611fa2565b60405180910390f35b34801561020c57600080fd5b5061022760048036038101906102229190611e11565b610b2c565b005b34801561023557600080fd5b50610250600480360381019061024b9190611d0d565b610d10565b60405161025d9190612158565b60405180910390f35b34801561027257600080fd5b5061027b610d35565b6040516102889190612158565b60405180910390f35b610299610d3b565b005b3480156102a757600080fd5b506102c260048036038101906102bd9190611d85565b610f30565b005b3480156102d057600080fd5b506102eb60048036038101906102e69190611d49565b611123565b005b3480156102f957600080fd5b50610314600480360381019061030f9190611e11565b611514565b60405161032797969594939291906121f1565b60405180910390f35b34801561033c57600080fd5b5061035760048036038101906103529190611e11565b6115b6565b604051610364919061201d565b60405180910390f35b34801561037957600080fd5b50610394600480360381019061038f9190611d0d565b6115d6565b6040516103a19190612158565b60405180910390f35b60025481565b8173ffffffffffffffffffffffffffffffffffffffff166323b872dd3330846040518463ffffffff1660e01b81526004016103ed93929190611fbd565b602060405180830381600087803b15801561040757600080fd5b505af115801561041b573d6000803e3d6000fd5b505050506040513d601f19601f8201168201806040525081019061043f9190611de8565b506104cf81600360008573ffffffffffffffffffffffffffffffffffffffff1673ffffffffffffffffffffffffffffffffffffffff16815260200190815260200160002060003373ffffffffffffffffffffffffffffffffffffffff1673ffffffffffffffffffffffffffffffffffffffff1681526020019081526020016000205461165d90919063ffffffff16565b600360008473ffffffffffffffffffffffffffffffffffffffff1673ffffffffffffffffffffffffffffffffffffffff16815260200190815260200160002060003373ffffffffffffffffffffffffffffffffffffffff1673ffffffffffffffffffffffffffffffffffffffff168152602001908152602001600020819055503373ffffffffffffffffffffffffffffffffffffffff168273ffffffffffffffffffffffffffffffffffffffff167fdcbc1c05240f31ff3ad067ef1ee35ce4997762752e3a095284754544f4c709d783600360008773ffffffffffffffffffffffffffffffffffffffff1673ffffffffffffffffffffffffffffffffffffffff16815260200190815260200160002060003373ffffffffffffffffffffffffffffffffffffffff1673ffffffffffffffffffffffffffffffffffffffff1681526020019081526020016000205460405161062a929190612260565b60405180910390a35050565b80600360008073ffffffffffffffffffffffffffffffffffffffff1673ffffffffffffffffffffffffffffffffffffffff16815260200190815260200160002060003373ffffffffffffffffffffffffffffffffffffffff1673ffffffffffffffffffffffffffffffffffffffff1681526020019081526020016000205410156106f5576040517f08c379a00000000000000000000000000000000000000000000000000000000081526004016106ec90612098565b60405180910390fd5b61078481600360008073ffffffffffffffffffffffffffffffffffffffff1673ffffffffffffffffffffffffffffffffffffffff16815260200190815260200160002060003373ffffffffffffffffffffffffffffffffffffffff1673ffffffffffffffffffffffffffffffffffffffff1681526020019081526020016000205461167390919063ffffffff16565b600360008073ffffffffffffffffffffffffffffffffffffffff1673ffffffffffffffffffffffffffffffffffffffff16815260200190815260200160002060003373ffffffffffffffffffffffffffffffffffffffff1673ffffffffffffffffffffffffffffffffffffffff168152602001908152602001600020819055503373ffffffffffffffffffffffffffffffffffffffff166108fc829081150290604051600060405180830381858888f1935050505015801561084a573d6000803e3d6000fd5b503373ffffffffffffffffffffffffffffffffffffffff16600073ffffffffffffffffffffffffffffffffffffffff167ff341246adaac6f497bc2a656f546ab9e182111d630394f0c57c710a59a2cb56783600360008073ffffffffffffffffffffffffffffffffffffffff1673ffffffffffffffffffffffffffffffffffffffff16815260200190815260200160002060003373ffffffffffffffffffffffffffffffffffffffff1673ffffffffffffffffffffffffffffffffffffffff16815260200190815260200160002054604051610927929190612260565b60405180910390a350565b60066020528060005260406000206000915054906101000a900460ff1681565b60006004600083815260200190815260200160002090503373ffffffffffffffffffffffffffffffffffffffff168160010160009054906101000a900473ffffffffffffffffffffffffffffffffffffffff1673ffffffffffffffffffffffffffffffffffffffff16146109fb576040517f08c379a00000000000000000000000000000000000000000000000000000000081526004016109f2906120d8565b60405180910390fd5b81816000015414610a41576040517f08c379a0000000000000000000000000000000000000000000000000000000008152600401610a3890612038565b60405180910390fd5b60016005600084815260200190815260200160002060006101000a81548160ff0219169083151502179055507f77de1da0be5f2d3b110d05c6694e5c4ff2d9da7cd23d84353ecf78c7b5acec618160000154338360020160009054906101000a900473ffffffffffffffffffffffffffffffffffffffff1684600301548560040160009054906101000a900473ffffffffffffffffffffffffffffffffffffffff16866005015442604051610afc97969594939291906121f1565b60405180910390a15050565b60008054906101000a900473ffffffffffffffffffffffffffffffffffffffff1681565b600081118015610b3e57506002548111155b610b7d576040517f08c379a0000000000000000000000000000000000000000000000000000000008152600401610b7490612078565b60405180910390fd5b6006600082815260200190815260200160002060009054906101000a900460ff1615610bde576040517f08c379a0000000000000000000000000000000000000000000000000000000008152600401610bd590612138565b60405180910390fd5b6005600082815260200190815260200160002060009054906101000a900460ff1615610c3f576040517f08c379a0000000000000000000000000000000000000000000000000000000008152600401610c36906120b8565b60405180910390fd5b6000600460008381526020019081526020016000209050610cdc81600001548260010160009054906101000a900473ffffffffffffffffffffffffffffffffffffffff168360020160009054906101000a900473ffffffffffffffffffffffffffffffffffffffff1684600301548560040160009054906101000a900473ffffffffffffffffffffffffffffffffffffffff168660050154611689565b6001600660008360000154815260200190815260200160002060006101000a81548160ff0219169083151502179055505050565b6003602052816000526040600020602052806000526040600020600091509150505481565b60015481565b610dca34600360008073ffffffffffffffffffffffffffffffffffffffff1673ffffffffffffffffffffffffffffffffffffffff16815260200190815260200160002060003373ffffffffffffffffffffffffffffffffffffffff1673ffffffffffffffffffffffffffffffffffffffff1681526020019081526020016000205461165d90919063ffffffff16565b600360008073ffffffffffffffffffffffffffffffffffffffff1673ffffffffffffffffffffffffffffffffffffffff16815260200190815260200160002060003373ffffffffffffffffffffffffffffffffffffffff1673ffffffffffffffffffffffffffffffffffffffff168152602001908152602001600020819055503373ffffffffffffffffffffffffffffffffffffffff16600073ffffffffffffffffffffffffffffffffffffffff167fdcbc1c05240f31ff3ad067ef1ee35ce4997762752e3a095284754544f4c709d734600360008073ffffffffffffffffffffffffffffffffffffffff1673ffffffffffffffffffffffffffffffffffffffff16815260200190815260200160002060003373ffffffffffffffffffffffffffffffffffffffff1673ffffffffffffffffffffffffffffffffffffffff16815260200190815260200160002054604051610f26929190612260565b60405180910390a3565b610f46600160025461165d90919063ffffffff16565b6002819055506040518060e0016040528060025481526020013373ffffffffffffffffffffffffffffffffffffffff1681526020018573ffffffffffffffffffffffffffffffffffffffff1681526020018481526020018373ffffffffffffffffffffffffffffffffffffffff168152602001828152602001428152506004600060025481526020019081526020016000206000820151816000015560208201518160010160006101000a81548173ffffffffffffffffffffffffffffffffffffffff021916908373ffffffffffffffffffffffffffffffffffffffff16021790555060408201518160020160006101000a81548173ffffffffffffffffffffffffffffffffffffffff021916908373ffffffffffffffffffffffffffffffffffffffff1602179055506060820151816003015560808201518160040160006101000a81548173ffffffffffffffffffffffffffffffffffffffff021916908373ffffffffffffffffffffffffffffffffffffffff16021790555060a0820151816005015560c082015181600601559050507f9d33853d43e3607b4cc01fdc78338ff2dca6fef7db9232dae6d3eb55fbc3b10960025433868686864260405161111597969594939291906121f1565b60405180910390a150505050565b600073ffffffffffffffffffffffffffffffffffffffff168273ffffffffffffffffffffffffffffffffffffffff161415611193576040517f08c379a000000000000000000000000000000000000000000000000000000000815260040161118a90612118565b60405180910390fd5b80600360008473ffffffffffffffffffffffffffffffffffffffff1673ffffffffffffffffffffffffffffffffffffffff16815260200190815260200160002060003373ffffffffffffffffffffffffffffffffffffffff1673ffffffffffffffffffffffffffffffffffffffff168152602001908152602001600020541015611252576040517f08c379a0000000000000000000000000000000000000000000000000000000008152600401611249906120f8565b60405180910390fd5b6112e181600360008573ffffffffffffffffffffffffffffffffffffffff1673ffffffffffffffffffffffffffffffffffffffff16815260200190815260200160002060003373ffffffffffffffffffffffffffffffffffffffff1673ffffffffffffffffffffffffffffffffffffffff1681526020019081526020016000205461167390919063ffffffff16565b600360008473ffffffffffffffffffffffffffffffffffffffff1673ffffffffffffffffffffffffffffffffffffffff16815260200190815260200160002060003373ffffffffffffffffffffffffffffffffffffffff1673ffffffffffffffffffffffffffffffffffffffff168152602001908152602001600020819055508173ffffffffffffffffffffffffffffffffffffffff1663a9059cbb33836040518363ffffffff1660e01b815260040161139c929190611ff4565b602060405180830381600087803b1580156113b657600080fd5b505af11580156113ca573d6000803e3d6000fd5b505050506040513d601f19601f820116820180604052508101906113ee9190611de8565b61142d576040517f08c379a000000000000000000000000000000000000000000000000000000000815260040161142490612058565b60405180910390fd5b3373ffffffffffffffffffffffffffffffffffffffff168273ffffffffffffffffffffffffffffffffffffffff167ff341246adaac6f497bc2a656f546ab9e182111d630394f0c57c710a59a2cb56783600360008773ffffffffffffffffffffffffffffffffffffffff1673ffffffffffffffffffffffffffffffffffffffff16815260200190815260200160002060003373ffffffffffffffffffffffffffffffffffffffff1673ffffffffffffffffffffffffffffffffffffffff16815260200190815260200160002054604051611508929190612260565b60405180910390a35050565b60046020528060005260406000206000915090508060000154908060010160009054906101000a900473ffffffffffffffffffffffffffffffffffffffff16908060020160009054906101000a900473ffffffffffffffffffffffffffffffffffffffff16908060030154908060040160009054906101000a900473ffffffffffffffffffffffffffffffffffffffff16908060050154908060060154905087565b60056020528060005260406000206000915054906101000a900460ff1681565b6000600360008473ffffffffffffffffffffffffffffffffffffffff1673ffffffffffffffffffffffffffffffffffffffff16815260200190815260200160002060008373ffffffffffffffffffffffffffffffffffffffff1673ffffffffffffffffffffffffffffffffffffffff16815260200190815260200160002054905092915050565b6000818361166b919061229a565b905092915050565b60008183611681919061237b565b905092915050565b60006116b360646116a560015487611ca290919063ffffffff16565b611cb890919063ffffffff16565b90506117566116cb828661165d90919063ffffffff16565b600360008873ffffffffffffffffffffffffffffffffffffffff1673ffffffffffffffffffffffffffffffffffffffff16815260200190815260200160002060003373ffffffffffffffffffffffffffffffffffffffff1673ffffffffffffffffffffffffffffffffffffffff1681526020019081526020016000205461167390919063ffffffff16565b600360008773ffffffffffffffffffffffffffffffffffffffff1673ffffffffffffffffffffffffffffffffffffffff16815260200190815260200160002060003373ffffffffffffffffffffffffffffffffffffffff1673ffffffffffffffffffffffffffffffffffffffff1681526020019081526020016000208190555061186584600360008873ffffffffffffffffffffffffffffffffffffffff1673ffffffffffffffffffffffffffffffffffffffff16815260200190815260200160002060008973ffffffffffffffffffffffffffffffffffffffff1673ffffffffffffffffffffffffffffffffffffffff1681526020019081526020016000205461165d90919063ffffffff16565b600360008773ffffffffffffffffffffffffffffffffffffffff1673ffffffffffffffffffffffffffffffffffffffff16815260200190815260200160002060008873ffffffffffffffffffffffffffffffffffffffff1673ffffffffffffffffffffffffffffffffffffffff1681526020019081526020016000208190555061199581600360008873ffffffffffffffffffffffffffffffffffffffff1673ffffffffffffffffffffffffffffffffffffffff16815260200190815260200160002060008060009054906101000a900473ffffffffffffffffffffffffffffffffffffffff1673ffffffffffffffffffffffffffffffffffffffff1673ffffffffffffffffffffffffffffffffffffffff1681526020019081526020016000205461165d90919063ffffffff16565b600360008773ffffffffffffffffffffffffffffffffffffffff1673ffffffffffffffffffffffffffffffffffffffff16815260200190815260200160002060008060009054906101000a900473ffffffffffffffffffffffffffffffffffffffff1673ffffffffffffffffffffffffffffffffffffffff1673ffffffffffffffffffffffffffffffffffffffff16815260200190815260200160002081905550611ac582600360008673ffffffffffffffffffffffffffffffffffffffff1673ffffffffffffffffffffffffffffffffffffffff16815260200190815260200160002060008973ffffffffffffffffffffffffffffffffffffffff1673ffffffffffffffffffffffffffffffffffffffff1681526020019081526020016000205461167390919063ffffffff16565b600360008573ffffffffffffffffffffffffffffffffffffffff1673ffffffffffffffffffffffffffffffffffffffff16815260200190815260200160002060008873ffffffffffffffffffffffffffffffffffffffff1673ffffffffffffffffffffffffffffffffffffffff16815260200190815260200160002081905550611bd482600360008673ffffffffffffffffffffffffffffffffffffffff1673ffffffffffffffffffffffffffffffffffffffff16815260200190815260200160002060003373ffffffffffffffffffffffffffffffffffffffff1673ffffffffffffffffffffffffffffffffffffffff1681526020019081526020016000205461165d90919063ffffffff16565b600360008573ffffffffffffffffffffffffffffffffffffffff1673ffffffffffffffffffffffffffffffffffffffff16815260200190815260200160002060003373ffffffffffffffffffffffffffffffffffffffff1673ffffffffffffffffffffffffffffffffffffffff168152602001908152602001600020819055507f0dddf4182dc0fc1a311cb75f049c97403c6b8a99cf6b2229a36e7c526acb3f818787878787873342604051611c91989796959493929190612173565b60405180910390a150505050505050565b60008183611cb09190612321565b905092915050565b60008183611cc691906122f0565b905092915050565b600081359050611cdd816125c6565b92915050565b600081519050611cf2816125dd565b92915050565b600081359050611d07816125f4565b92915050565b60008060408385031215611d2057600080fd5b6000611d2e85828601611cce565b9250506020611d3f85828601611cce565b9150509250929050565b60008060408385031215611d5c57600080fd5b6000611d6a85828601611cce565b9250506020611d7b85828601611cf8565b9150509250929050565b60008060008060808587031215611d9b57600080fd5b6000611da987828801611cce565b9450506020611dba87828801611cf8565b9350506040611dcb87828801611cce565b9250506060611ddc87828801611cf8565b91505092959194509250565b600060208284031215611dfa57600080fd5b6000611e0884828501611ce3565b91505092915050565b600060208284031215611e2357600080fd5b6000611e3184828501611cf8565b91505092915050565b611e43816123af565b82525050565b611e52816123c1565b82525050565b6000611e65601483612289565b9150611e7082612455565b602082019050919050565b6000611e88600683612289565b9150611e938261247e565b602082019050919050565b6000611eab600d83612289565b9150611eb6826124a7565b602082019050919050565b6000611ece601383612289565b9150611ed9826124d0565b602082019050919050565b6000611ef1601283612289565b9150611efc826124f9565b602082019050919050565b6000611f14600e83612289565b9150611f1f82612522565b602082019050919050565b6000611f37601483612289565b9150611f428261254b565b602082019050919050565b6000611f5a601983612289565b9150611f6582612574565b602082019050919050565b6000611f7d600f83612289565b9150611f888261259d565b602082019050919050565b611f9c816123ed565b82525050565b6000602082019050611fb76000830184611e3a565b92915050565b6000606082019050611fd26000830186611e3a565b611fdf6020830185611e3a565b611fec6040830184611f93565b949350505050565b60006040820190506120096000830185611e3a565b6120166020830184611f93565b9392505050565b60006020820190506120326000830184611e49565b92915050565b6000602082019050818103600083015261205181611e58565b9050919050565b6000602082019050818103600083015261207181611e7b565b9050919050565b6000602082019050818103600083015261209181611e9e565b9050919050565b600060208201905081810360008301526120b181611ec1565b9050919050565b600060208201905081810360008301526120d181611ee4565b9050919050565b600060208201905081810360008301526120f181611f07565b9050919050565b6000602082019050818103600083015261211181611f2a565b9050919050565b6000602082019050818103600083015261213181611f4d565b9050919050565b6000602082019050818103600083015261215181611f70565b9050919050565b600060208201905061216d6000830184611f93565b92915050565b600061010082019050612189600083018b611f93565b612196602083018a611e3a565b6121a36040830189611e3a565b6121b06060830188611f93565b6121bd6080830187611e3a565b6121ca60a0830186611f93565b6121d760c0830185611e3a565b6121e460e0830184611f93565b9998505050505050505050565b600060e082019050612206600083018a611f93565b6122136020830189611e3a565b6122206040830188611e3a565b61222d6060830187611f93565b61223a6080830186611e3a565b61224760a0830185611f93565b61225460c0830184611f93565b98975050505050505050565b60006040820190506122756000830185611f93565b6122826020830184611f93565b9392505050565b600082825260208201905092915050565b60006122a5826123ed565b91506122b0836123ed565b9250827fffffffffffffffffffffffffffffffffffffffffffffffffffffffffffffffff038211156122e5576122e46123f7565b5b828201905092915050565b60006122fb826123ed565b9150612306836123ed565b92508261231657612315612426565b5b828204905092915050565b600061232c826123ed565b9150612337836123ed565b9250817fffffffffffffffffffffffffffffffffffffffffffffffffffffffffffffffff04831182151516156123705761236f6123f7565b5b828202905092915050565b6000612386826123ed565b9150612391836123ed565b9250828210156123a4576123a36123f7565b5b828203905092915050565b60006123ba826123cd565b9050919050565b60008115159050919050565b600073ffffffffffffffffffffffffffffffffffffffff82169050919050565b6000819050919050565b7f4e487b7100000000000000000000000000000000000000000000000000000000600052601160045260246000fd5b7f4e487b7100000000000000000000000000000000000000000000000000000000600052601260045260246000fd5b7f6f7264657220646f6573206e6f74206578697374000000000000000000000000600082015250565b7f64656e6965640000000000000000000000000000000000000000000000000000600082015250565b7f696420697320696e76616c696400000000000000000000000000000000000000600082015250565b7f696e737566666963656e742062616c616e636500000000000000000000000000600082015250565b7f6f726465722069732063616e63656c6c65640000000000000000000000000000600082015250565b7f6e6f7420796f7572206f72646572000000000000000000000000000000000000600082015250565b7f696e73756666696369656e742062616c616e6365000000000000000000000000600082015250565b7f796f752063616e6e6f7420776974686472617720657468657200000000000000600082015250565b7f6f726465722069732066696c6c65640000000000000000000000000000000000600082015250565b6125cf816123af565b81146125da57600080fd5b50565b6125e6816123c1565b81146125f157600080fd5b50565b6125fd816123ed565b811461260857600080fd5b5056fea2646970667358221220264a376b6933fceaa6d48adbea1ad1067601bf92a7ec4df038ff435491427c5064736f6c63430008040033",
  "immutableReferences": {},
  "source": "pragma solidity 0.8.4;\n\nimport \"./Token.sol\";\nimport \"@openzeppelin/contracts/utils/math/SafeMath.sol\";\n\n\ncontract Exchange {\n        using SafeMath for uint;\n\n        address public feeAccount;\n        uint256 public feePercent;\n        uint256 public orderCount;\n        address constant ETHER = address(0);\n\n    struct _Order {\n        uint256 id; \n        address user; //person who made the order\n        address tokenGet; //token they want to purchase\n        uint256 amountGet; //amount of token user wants to get\n        address tokenGive; //token they will use in the trade i.e token they will give\n        uint256 amountGive; // the amount they will give\n        uint256 timestamp; // the actual time the order was created\n            }    \n\n    mapping(address => mapping(address => uint256)) public trackDeposit;\n    mapping(uint256 => _Order) public orders;\n    mapping(uint256 => bool) public orderCancelled;\n    mapping(uint256 => bool) public orderFilled;\n    \n\n    event Deposit(address indexed token, address indexed msgSender, uint256 amount, uint256 balance);\n    event Withdraw(address indexed token, address indexed user, uint256 amount, uint256 balance);\n    event Order(\n        uint256 id,\n        address user,\n        address tokenGet,\n        uint256 amountGet,\n        address tokenGive,\n        uint256 amountGive,\n        uint256 timestamp\n    );\n\n    event Cancel(\n        uint256 id,\n        address user,\n        address tokenGet,\n        uint256 amountGet,\n        address tokenGive,\n        uint256 amountGive,\n        uint256 timestamp\n    );\n\n    event Trade(\n        uint256 id,\n        address user,\n        address tokenGet,\n        uint256 amountGet,\n        address tokenGive,\n        uint256 amountGive,\n        address userFill,\n        uint256 timestamp\n  );\n\n    constructor (address _feeAccount, uint256 _feePercent) {\n        feeAccount = _feeAccount;\n        feePercent = _feePercent;\n    }\n\n    fallback() external {\n        revert();\n    }\n\n    function depositEther() payable external {\n        trackDeposit[ETHER][msg.sender] = trackDeposit[ETHER][msg.sender].add(msg.value);\n        emit Deposit(ETHER, msg.sender, msg.value, trackDeposit[ETHER][msg.sender]);\n    }\n\n    function withdrawEther(uint _amount) payable external {\n        require(trackDeposit[ETHER][msg.sender] >= _amount, \"insufficent balance\");\n        trackDeposit[ETHER][msg.sender] = trackDeposit[ETHER][msg.sender].sub(_amount);\n        payable (msg.sender).transfer(_amount);\n        emit Withdraw(ETHER, msg.sender, _amount, trackDeposit[ETHER][msg.sender]);\n    }\n\n    function depositToken(address _token, uint256 _amount) external {\n        Token(_token).transferFrom(msg.sender, address(this), _amount);\n        trackDeposit[_token][msg.sender] = trackDeposit[_token][msg.sender].add(_amount); \n        emit Deposit(_token, msg.sender, _amount, trackDeposit[_token][msg.sender]);\n    }\n\n    function withdrawToken(address _token, uint256 _amount) external {\n        require(_token != ETHER, \"you cannot withdraw ether\");\n        require(trackDeposit[_token][msg.sender] >= _amount, \"insufficient balance\");\n        trackDeposit[_token][msg.sender] = trackDeposit[_token][msg.sender].sub(_amount);\n        require(Token(_token).transfer(msg.sender, _amount), \"denied\");\n        emit Withdraw(_token, msg.sender, _amount, trackDeposit[_token][msg.sender]);\n    }\n\n    function balanceOf(address _token, address _user) external view returns (uint256) {\n        return trackDeposit[_token][_user];\n    }\n\n    function makeOrder(address _tokenGet, uint256 _amountGet, address _tokenGive, uint256 _amountGive) external {\n        orderCount = orderCount.add(1);\n        orders[orderCount] = _Order(orderCount, msg.sender, _tokenGet, _amountGet, _tokenGive, _amountGive, block.timestamp);\n        emit Order(orderCount, msg.sender, _tokenGet, _amountGet, _tokenGive, _amountGive, block.timestamp);\n    }\n\n    function cancelOrder(uint256 _id) external {\n        _Order storage _order = orders[_id];\n        require(_order.user == msg.sender, \"not your order\");\n        require(_order.id == _id, \"order does not exist\"); // The order must exist\n        orderCancelled[_id] = true;\n        emit Cancel(_order.id, msg.sender, _order.tokenGet, _order.amountGet, _order.tokenGive, _order.amountGive, block.timestamp);\n    }\n\n    function fillOrder(uint256 _id) external {\n        require(_id > 0 && _id <= orderCount, \"id is invalid\");\n        require(!orderFilled[_id], \"order is filled\");\n        require(!orderCancelled[_id], \"order is cancelled\");\n        _Order storage _order = orders[_id];\n        _trade(_order.id, _order.user, _order.tokenGet, _order.amountGet, _order.tokenGive, _order.amountGive);\n        orderFilled[_order.id] = true;\n    }\n\n  function _trade(uint256 _orderId, address _user, address _tokenGet, uint256 _amountGet, address _tokenGive, uint256 _amountGive) internal {\n        uint256 _feeAmount = _amountGet.mul(feePercent).div(100);\n\n        trackDeposit[_tokenGet][msg.sender] = trackDeposit[_tokenGet][msg.sender].sub(_amountGet.add(_feeAmount));\n        trackDeposit[_tokenGet][_user] = trackDeposit[_tokenGet][_user].add(_amountGet);\n        trackDeposit[_tokenGet][feeAccount] = trackDeposit[_tokenGet][feeAccount].add(_feeAmount);\n        trackDeposit[_tokenGive][_user] = trackDeposit[_tokenGive][_user].sub(_amountGive);\n        trackDeposit[_tokenGive][msg.sender] = trackDeposit[_tokenGive][msg.sender].add(_amountGive);\n\n        emit Trade(_orderId, _user, _tokenGet, _amountGet, _tokenGive, _amountGive, msg.sender, block.timestamp);\n    }\n}",
  "sourcePath": "/home/favourite/Desktop/workspace/Me/bootcamp/blockchain/src/contracts/Exchange.sol",
  "compiler": {
    "name": "solc",
    "version": "0.8.4+commit.c7e474f2.Emscripten.clang"
  },
  "schemaVersion": "3.4.7",
  "updatedAt": "2022-07-18T15:34:40.040Z",
  "networkType": "ethereum",
  "devdoc": {
    "kind": "dev",
    "methods": {},
    "version": 1
  },
  "userdoc": {
    "kind": "user",
    "methods": {},
    "version": 1
  }
}