{
  "contractName": "Exchange",
  "abi": [
    {
      "inputs": [
        {
          "internalType": "address",
          "name": "_feeAccount",
          "type": "address"
        },
        {
          "internalType": "uint256",
          "name": "_feePercent",
          "type": "uint256"
        }
      ],
      "stateMutability": "nonpayable",
      "type": "constructor"
    },
    {
      "anonymous": false,
      "inputs": [
        {
          "indexed": true,
          "internalType": "address",
          "name": "token",
          "type": "address"
        },
        {
          "indexed": true,
          "internalType": "address",
          "name": "msgSender",
          "type": "address"
        },
        {
          "indexed": false,
          "internalType": "uint256",
          "name": "amount",
          "type": "uint256"
        },
        {
          "indexed": false,
          "internalType": "uint256",
          "name": "balance",
          "type": "uint256"
        }
      ],
      "name": "Deposit",
      "type": "event"
    },
    {
      "anonymous": false,
      "inputs": [
        {
          "indexed": true,
          "internalType": "address",
          "name": "token",
          "type": "address"
        },
        {
          "indexed": true,
          "internalType": "address",
          "name": "user",
          "type": "address"
        },
        {
          "indexed": false,
          "internalType": "uint256",
          "name": "amount",
          "type": "uint256"
        },
        {
          "indexed": false,
          "internalType": "uint256",
          "name": "balance",
          "type": "uint256"
        }
      ],
      "name": "Withdraw",
      "type": "event"
    },
    {
      "stateMutability": "nonpayable",
      "type": "fallback"
    },
    {
      "inputs": [],
      "name": "feeAccount",
      "outputs": [
        {
          "internalType": "address",
          "name": "",
          "type": "address"
        }
      ],
      "stateMutability": "view",
      "type": "function"
    },
    {
      "inputs": [],
      "name": "feePercent",
      "outputs": [
        {
          "internalType": "uint256",
          "name": "",
          "type": "uint256"
        }
      ],
      "stateMutability": "view",
      "type": "function"
    },
    {
      "inputs": [
        {
          "internalType": "address",
          "name": "",
          "type": "address"
        },
        {
          "internalType": "address",
          "name": "",
          "type": "address"
        }
      ],
      "name": "trackDeposit",
      "outputs": [
        {
          "internalType": "uint256",
          "name": "",
          "type": "uint256"
        }
      ],
      "stateMutability": "view",
      "type": "function"
    },
    {
      "inputs": [],
      "name": "depositEther",
      "outputs": [],
      "stateMutability": "payable",
      "type": "function"
    },
    {
      "inputs": [
        {
          "internalType": "uint256",
          "name": "_amount",
          "type": "uint256"
        }
      ],
      "name": "withdrawEther",
      "outputs": [],
      "stateMutability": "payable",
      "type": "function"
    },
    {
      "inputs": [
        {
          "internalType": "address",
          "name": "_token",
          "type": "address"
        },
        {
          "internalType": "uint256",
          "name": "_amount",
          "type": "uint256"
        }
      ],
      "name": "depositToken",
      "outputs": [],
      "stateMutability": "nonpayable",
      "type": "function"
    },
    {
      "inputs": [
        {
          "internalType": "address",
          "name": "_token",
          "type": "address"
        },
        {
          "internalType": "uint256",
          "name": "_amount",
          "type": "uint256"
        }
      ],
      "name": "withdrawToken",
      "outputs": [],
      "stateMutability": "nonpayable",
      "type": "function"
    }
  ],
  "bytecode": "0x60806040523480156200001157600080fd5b506040516200140f3803806200140f8339818101604052810190620000379190620000b4565b816000806101000a81548173ffffffffffffffffffffffffffffffffffffffff021916908373ffffffffffffffffffffffffffffffffffffffff16021790555080600181905550505062000167565b600081519050620000978162000133565b92915050565b600081519050620000ae816200014d565b92915050565b60008060408385031215620000c857600080fd5b6000620000d88582860162000086565b9250506020620000eb858286016200009d565b9150509250929050565b6000620001028262000109565b9050919050565b600073ffffffffffffffffffffffffffffffffffffffff82169050919050565b6000819050919050565b6200013e81620000f5565b81146200014a57600080fd5b50565b620001588162000129565b81146200016457600080fd5b50565b61129880620001776000396000f3fe6080604052600436106100745760003560e01c80637a2f96411161004e5780637a2f9641146100f75780637fd6f15c1461013457806398ea5fca1461015f5780639e281a981461016957610075565b8063338b5dea146100875780633bed33ce146100b057806365e17c9d146100cc57610075565b5b34801561008157600080fd5b50600080fd5b34801561009357600080fd5b506100ae60048036038101906100a99190610df0565b610192565b005b6100ca60048036038101906100c59190610e55565b610418565b005b3480156100d857600080fd5b506100e1610714565b6040516100ee9190610f28565b60405180910390f35b34801561010357600080fd5b5061011e60048036038101906101199190610db4565b610738565b60405161012b9190611023565b60405180910390f35b34801561014057600080fd5b5061014961075d565b6040516101569190611023565b60405180910390f35b610167610763565b005b34801561017557600080fd5b50610190600480360381019061018b9190610df0565b610958565b005b8173ffffffffffffffffffffffffffffffffffffffff166323b872dd3330846040518463ffffffff1660e01b81526004016101cf93929190610f43565b602060405180830381600087803b1580156101e957600080fd5b505af11580156101fd573d6000803e3d6000fd5b505050506040513d601f19601f820116820180604052508101906102219190610e2c565b506102b181600260008573ffffffffffffffffffffffffffffffffffffffff1673ffffffffffffffffffffffffffffffffffffffff16815260200190815260200160002060003373ffffffffffffffffffffffffffffffffffffffff1673ffffffffffffffffffffffffffffffffffffffff16815260200190815260200160002054610d4990919063ffffffff16565b600260008473ffffffffffffffffffffffffffffffffffffffff1673ffffffffffffffffffffffffffffffffffffffff16815260200190815260200160002060003373ffffffffffffffffffffffffffffffffffffffff1673ffffffffffffffffffffffffffffffffffffffff168152602001908152602001600020819055503373ffffffffffffffffffffffffffffffffffffffff168273ffffffffffffffffffffffffffffffffffffffff167fdcbc1c05240f31ff3ad067ef1ee35ce4997762752e3a095284754544f4c709d783600260008773ffffffffffffffffffffffffffffffffffffffff1673ffffffffffffffffffffffffffffffffffffffff16815260200190815260200160002060003373ffffffffffffffffffffffffffffffffffffffff1673ffffffffffffffffffffffffffffffffffffffff1681526020019081526020016000205460405161040c92919061103e565b60405180910390a35050565b80600260008073ffffffffffffffffffffffffffffffffffffffff1673ffffffffffffffffffffffffffffffffffffffff16815260200190815260200160002060003373ffffffffffffffffffffffffffffffffffffffff1673ffffffffffffffffffffffffffffffffffffffff1681526020019081526020016000205410156104d7576040517f08c379a00000000000000000000000000000000000000000000000000000000081526004016104ce90610fa3565b60405180910390fd5b61056681600260008073ffffffffffffffffffffffffffffffffffffffff1673ffffffffffffffffffffffffffffffffffffffff16815260200190815260200160002060003373ffffffffffffffffffffffffffffffffffffffff1673ffffffffffffffffffffffffffffffffffffffff16815260200190815260200160002054610d5f90919063ffffffff16565b600260008073ffffffffffffffffffffffffffffffffffffffff1673ffffffffffffffffffffffffffffffffffffffff16815260200190815260200160002060003373ffffffffffffffffffffffffffffffffffffffff1673ffffffffffffffffffffffffffffffffffffffff168152602001908152602001600020819055503373ffffffffffffffffffffffffffffffffffffffff166108fc829081150290604051600060405180830381858888f1935050505015801561062c573d6000803e3d6000fd5b503373ffffffffffffffffffffffffffffffffffffffff16600073ffffffffffffffffffffffffffffffffffffffff167ff341246adaac6f497bc2a656f546ab9e182111d630394f0c57c710a59a2cb56783600260008073ffffffffffffffffffffffffffffffffffffffff1673ffffffffffffffffffffffffffffffffffffffff16815260200190815260200160002060003373ffffffffffffffffffffffffffffffffffffffff1673ffffffffffffffffffffffffffffffffffffffff1681526020019081526020016000205460405161070992919061103e565b60405180910390a350565b60008054906101000a900473ffffffffffffffffffffffffffffffffffffffff1681565b6002602052816000526040600020602052806000526040600020600091509150505481565b60015481565b6107f234600260008073ffffffffffffffffffffffffffffffffffffffff1673ffffffffffffffffffffffffffffffffffffffff16815260200190815260200160002060003373ffffffffffffffffffffffffffffffffffffffff1673ffffffffffffffffffffffffffffffffffffffff16815260200190815260200160002054610d4990919063ffffffff16565b600260008073ffffffffffffffffffffffffffffffffffffffff1673ffffffffffffffffffffffffffffffffffffffff16815260200190815260200160002060003373ffffffffffffffffffffffffffffffffffffffff1673ffffffffffffffffffffffffffffffffffffffff168152602001908152602001600020819055503373ffffffffffffffffffffffffffffffffffffffff16600073ffffffffffffffffffffffffffffffffffffffff167fdcbc1c05240f31ff3ad067ef1ee35ce4997762752e3a095284754544f4c709d734600260008073ffffffffffffffffffffffffffffffffffffffff1673ffffffffffffffffffffffffffffffffffffffff16815260200190815260200160002060003373ffffffffffffffffffffffffffffffffffffffff1673ffffffffffffffffffffffffffffffffffffffff1681526020019081526020016000205460405161094e92919061103e565b60405180910390a3565b600073ffffffffffffffffffffffffffffffffffffffff168273ffffffffffffffffffffffffffffffffffffffff1614156109c8576040517f08c379a00000000000000000000000000000000000000000000000000000000081526004016109bf90611003565b60405180910390fd5b80600260008473ffffffffffffffffffffffffffffffffffffffff1673ffffffffffffffffffffffffffffffffffffffff16815260200190815260200160002060003373ffffffffffffffffffffffffffffffffffffffff1673ffffffffffffffffffffffffffffffffffffffff168152602001908152602001600020541015610a87576040517f08c379a0000000000000000000000000000000000000000000000000000000008152600401610a7e90610fc3565b60405180910390fd5b610b1681600260008573ffffffffffffffffffffffffffffffffffffffff1673ffffffffffffffffffffffffffffffffffffffff16815260200190815260200160002060003373ffffffffffffffffffffffffffffffffffffffff1673ffffffffffffffffffffffffffffffffffffffff16815260200190815260200160002054610d5f90919063ffffffff16565b600260008473ffffffffffffffffffffffffffffffffffffffff1673ffffffffffffffffffffffffffffffffffffffff16815260200190815260200160002060003373ffffffffffffffffffffffffffffffffffffffff1673ffffffffffffffffffffffffffffffffffffffff168152602001908152602001600020819055508173ffffffffffffffffffffffffffffffffffffffff1663a9059cbb33836040518363ffffffff1660e01b8152600401610bd1929190610f7a565b602060405180830381600087803b158015610beb57600080fd5b505af1158015610bff573d6000803e3d6000fd5b505050506040513d601f19601f82011682018060405250810190610c239190610e2c565b610c62576040517f08c379a0000000000000000000000000000000000000000000000000000000008152600401610c5990610fe3565b60405180910390fd5b3373ffffffffffffffffffffffffffffffffffffffff168273ffffffffffffffffffffffffffffffffffffffff167ff341246adaac6f497bc2a656f546ab9e182111d630394f0c57c710a59a2cb56783600260008773ffffffffffffffffffffffffffffffffffffffff1673ffffffffffffffffffffffffffffffffffffffff16815260200190815260200160002060003373ffffffffffffffffffffffffffffffffffffffff1673ffffffffffffffffffffffffffffffffffffffff16815260200190815260200160002054604051610d3d92919061103e565b60405180910390a35050565b60008183610d579190611078565b905092915050565b60008183610d6d91906110ce565b905092915050565b600081359050610d848161121d565b92915050565b600081519050610d9981611234565b92915050565b600081359050610dae8161124b565b92915050565b60008060408385031215610dc757600080fd5b6000610dd585828601610d75565b9250506020610de685828601610d75565b9150509250929050565b60008060408385031215610e0357600080fd5b6000610e1185828601610d75565b9250506020610e2285828601610d9f565b9150509250929050565b600060208284031215610e3e57600080fd5b6000610e4c84828501610d8a565b91505092915050565b600060208284031215610e6757600080fd5b6000610e7584828501610d9f565b91505092915050565b610e8781611102565b82525050565b6000610e9a601383611067565b9150610ea582611179565b602082019050919050565b6000610ebd601483611067565b9150610ec8826111a2565b602082019050919050565b6000610ee0600a83611067565b9150610eeb826111cb565b602082019050919050565b6000610f03601983611067565b9150610f0e826111f4565b602082019050919050565b610f2281611140565b82525050565b6000602082019050610f3d6000830184610e7e565b92915050565b6000606082019050610f586000830186610e7e565b610f656020830185610e7e565b610f726040830184610f19565b949350505050565b6000604082019050610f8f6000830185610e7e565b610f9c6020830184610f19565b9392505050565b60006020820190508181036000830152610fbc81610e8d565b9050919050565b60006020820190508181036000830152610fdc81610eb0565b9050919050565b60006020820190508181036000830152610ffc81610ed3565b9050919050565b6000602082019050818103600083015261101c81610ef6565b9050919050565b60006020820190506110386000830184610f19565b92915050565b60006040820190506110536000830185610f19565b6110606020830184610f19565b9392505050565b600082825260208201905092915050565b600061108382611140565b915061108e83611140565b9250827fffffffffffffffffffffffffffffffffffffffffffffffffffffffffffffffff038211156110c3576110c261114a565b5b828201905092915050565b60006110d982611140565b91506110e483611140565b9250828210156110f7576110f661114a565b5b828203905092915050565b600061110d82611120565b9050919050565b60008115159050919050565b600073ffffffffffffffffffffffffffffffffffffffff82169050919050565b6000819050919050565b7f4e487b7100000000000000000000000000000000000000000000000000000000600052601160045260246000fd5b7f696e737566666963656e742062616c616e636500000000000000000000000000600082015250565b7f696e73756666696369656e742062616c616e6365000000000000000000000000600082015250565b7f74686520726561736f6e00000000000000000000000000000000000000000000600082015250565b7f796f752063616e6e6f7420776974686472617720657468657200000000000000600082015250565b61122681611102565b811461123157600080fd5b50565b61123d81611114565b811461124857600080fd5b50565b61125481611140565b811461125f57600080fd5b5056fea2646970667358221220810016ad8c152c956f38404cd5a2fc22eb029dcfd8cc3105675a15b8b3eb163064736f6c63430008040033",
  "immutableReferences": {},
  "source": "pragma solidity 0.8.4;\n\nimport \"./Token.sol\";\nimport \"@openzeppelin/contracts/utils/math/SafeMath.sol\";\n\n\ncontract Exchange {\n        using SafeMath for uint;\n\n        address public feeAccount;\n        uint256 public feePercent;\n        address constant ETHER = address(0);\n\n    mapping(address => mapping(address => uint256)) public trackDeposit;\n\n    event Deposit(address indexed token, address indexed msgSender, uint256 amount, uint256 balance);\n    event Withdraw(address indexed token, address indexed user, uint256 amount, uint256 balance);\n\n    constructor (address _feeAccount, uint256 _feePercent) {\n        feeAccount = _feeAccount;\n        feePercent = _feePercent;\n    }\n\n    fallback() external {\n        revert();\n    }\n\n    function depositEther() payable external {\n        trackDeposit[ETHER][msg.sender] = trackDeposit[ETHER][msg.sender].add(msg.value);\n        emit Deposit(ETHER, msg.sender, msg.value, trackDeposit[ETHER][msg.sender]);\n    }\n\n    function withdrawEther(uint _amount) payable external {\n        require(trackDeposit[ETHER][msg.sender] >= _amount, \"insufficent balance\");\n        trackDeposit[ETHER][msg.sender] = trackDeposit[ETHER][msg.sender].sub(_amount);\n        payable (msg.sender).transfer(_amount);\n        emit Withdraw(ETHER, msg.sender, _amount, trackDeposit[ETHER][msg.sender]);\n    }\n\n    function depositToken(address _token, uint256 _amount) external {\n        Token(_token).transferFrom(msg.sender, address(this), _amount);\n        trackDeposit[_token][msg.sender] = trackDeposit[_token][msg.sender].add(_amount); \n        emit Deposit(_token, msg.sender, _amount, trackDeposit[_token][msg.sender]);\n    }\n\n    function withdrawToken(address _token, uint256 _amount) external {\n        require(_token != ETHER, \"you cannot withdraw ether\");\n        require(trackDeposit[_token][msg.sender] >= _amount, \"insufficient balance\");\n        trackDeposit[_token][msg.sender] = trackDeposit[_token][msg.sender].sub(_amount);\n        require(Token(_token).transfer(msg.sender, _amount), \"the reason\");\n        emit Withdraw(_token, msg.sender, _amount, trackDeposit[_token][msg.sender]);\n    }\n}",
  "sourcePath": "/home/favourite/Desktop/workspace/Me/bootcamp/blockchain/src/contracts/Exchange.sol",
  "compiler": {
    "name": "solc",
    "version": "0.8.4+commit.c7e474f2.Emscripten.clang"
  },
  "schemaVersion": "3.4.7",
  "updatedAt": "2022-07-15T11:05:47.777Z",
  "devdoc": {
    "kind": "dev",
    "methods": {},
    "version": 1
  },
  "userdoc": {
    "kind": "user",
    "methods": {},
    "version": 1
  }
}