{
  "contractName": "Token",
  "abi": [
    {
      "inputs": [],
      "stateMutability": "nonpayable",
      "type": "constructor"
    },
    {
      "anonymous": false,
      "inputs": [
        {
          "indexed": true,
          "internalType": "address",
          "name": "_owner",
          "type": "address"
        },
        {
          "indexed": true,
          "internalType": "address",
          "name": "_spender",
          "type": "address"
        },
        {
          "indexed": false,
          "internalType": "uint256",
          "name": "_value",
          "type": "uint256"
        }
      ],
      "name": "Approval",
      "type": "event"
    },
    {
      "anonymous": false,
      "inputs": [
        {
          "indexed": true,
          "internalType": "address",
          "name": "from",
          "type": "address"
        },
        {
          "indexed": true,
          "internalType": "address",
          "name": "to",
          "type": "address"
        },
        {
          "indexed": false,
          "internalType": "uint256",
          "name": "value",
          "type": "uint256"
        }
      ],
      "name": "Transfer",
      "type": "event"
    },
    {
      "inputs": [
        {
          "internalType": "address",
          "name": "",
          "type": "address"
        },
        {
          "internalType": "address",
          "name": "",
          "type": "address"
        }
      ],
      "name": "allowance",
      "outputs": [
        {
          "internalType": "uint256",
          "name": "",
          "type": "uint256"
        }
      ],
      "stateMutability": "view",
      "type": "function",
      "constant": true
    },
    {
      "inputs": [
        {
          "internalType": "address",
          "name": "",
          "type": "address"
        }
      ],
      "name": "balanceOf",
      "outputs": [
        {
          "internalType": "uint256",
          "name": "",
          "type": "uint256"
        }
      ],
      "stateMutability": "view",
      "type": "function",
      "constant": true
    },
    {
      "inputs": [],
      "name": "decimal",
      "outputs": [
        {
          "internalType": "uint256",
          "name": "",
          "type": "uint256"
        }
      ],
      "stateMutability": "view",
      "type": "function",
      "constant": true
    },
    {
      "inputs": [],
      "name": "name",
      "outputs": [
        {
          "internalType": "string",
          "name": "",
          "type": "string"
        }
      ],
      "stateMutability": "view",
      "type": "function",
      "constant": true
    },
    {
      "inputs": [],
      "name": "symbol",
      "outputs": [
        {
          "internalType": "string",
          "name": "",
          "type": "string"
        }
      ],
      "stateMutability": "view",
      "type": "function",
      "constant": true
    },
    {
      "inputs": [],
      "name": "totalSupply",
      "outputs": [
        {
          "internalType": "uint256",
          "name": "",
          "type": "uint256"
        }
      ],
      "stateMutability": "view",
      "type": "function",
      "constant": true
    },
    {
      "inputs": [
        {
          "internalType": "address",
          "name": "_to",
          "type": "address"
        },
        {
          "internalType": "uint256",
          "name": "_value",
          "type": "uint256"
        }
      ],
      "name": "transfer",
      "outputs": [
        {
          "internalType": "bool",
          "name": "success",
          "type": "bool"
        }
      ],
      "stateMutability": "nonpayable",
      "type": "function"
    },
    {
      "inputs": [
        {
          "internalType": "address",
          "name": "_spender",
          "type": "address"
        },
        {
          "internalType": "uint256",
          "name": "_value",
          "type": "uint256"
        }
      ],
      "name": "approve",
      "outputs": [
        {
          "internalType": "bool",
          "name": "success",
          "type": "bool"
        }
      ],
      "stateMutability": "nonpayable",
      "type": "function"
    },
    {
      "inputs": [
        {
          "internalType": "address",
          "name": "_from",
          "type": "address"
        },
        {
          "internalType": "address",
          "name": "_to",
          "type": "address"
        },
        {
          "internalType": "uint256",
          "name": "_value",
          "type": "uint256"
        }
      ],
      "name": "transferFrom",
      "outputs": [
        {
          "internalType": "bool",
          "name": "success",
          "type": "bool"
        }
      ],
      "stateMutability": "nonpayable",
      "type": "function"
    }
  ],
  "bytecode": "0x60806040523480156200001157600080fd5b506040518060400160405280600b81526020017f536f6c696420546f6b656e000000000000000000000000000000000000000000815250600190805190602001906200005f92919062000114565b506040518060400160405280600481526020017f53544b4e0000000000000000000000000000000000000000000000000000000081525060029080519060200190620000ad92919062000114565b506a108b2a2c280290940000006003819055506012600481905550600354600560003373ffffffffffffffffffffffffffffffffffffffff1673ffffffffffffffffffffffffffffffffffffffff1681526020019081526020016000208190555062000229565b8280546200012290620001c4565b90600052602060002090601f01602090048101928262000146576000855562000192565b82601f106200016157805160ff191683800117855562000192565b8280016001018555821562000192579182015b828111156200019157825182559160200191906001019062000174565b5b509050620001a19190620001a5565b5090565b5b80821115620001c0576000816000905550600101620001a6565b5090565b60006002820490506001821680620001dd57607f821691505b60208210811415620001f457620001f3620001fa565b5b50919050565b7f4e487b7100000000000000000000000000000000000000000000000000000000600052602260045260246000fd5b610fb980620002396000396000f3fe608060405234801561001057600080fd5b50600436106100935760003560e01c806370a082311161006657806370a082311461013457806376809ce31461016457806395d89b4114610182578063a9059cbb146101a0578063dd62ed3e146101d057610093565b806306fdde0314610098578063095ea7b3146100b657806318160ddd146100e657806323b872dd14610104575b600080fd5b6100a0610200565b6040516100ad9190610c55565b60405180910390f35b6100d060048036038101906100cb9190610b3e565b61028e565b6040516100dd9190610c3a565b60405180910390f35b6100ee610380565b6040516100fb9190610cd7565b60405180910390f35b61011e60048036038101906101199190610aef565b610386565b60405161012b9190610c3a565b60405180910390f35b61014e60048036038101906101499190610a8a565b610772565b60405161015b9190610cd7565b60405180910390f35b61016c61078a565b6040516101799190610cd7565b60405180910390f35b61018a610790565b6040516101979190610c55565b60405180910390f35b6101ba60048036038101906101b59190610b3e565b61081e565b6040516101c79190610c3a565b60405180910390f35b6101ea60048036038101906101e59190610ab3565b610a0f565b6040516101f79190610cd7565b60405180910390f35b6001805461020d90610e13565b80601f016020809104026020016040519081016040528092919081815260200182805461023990610e13565b80156102865780601f1061025b57610100808354040283529160200191610286565b820191906000526020600020905b81548152906001019060200180831161026957829003601f168201915b505050505081565b600081600660003373ffffffffffffffffffffffffffffffffffffffff1673ffffffffffffffffffffffffffffffffffffffff16815260200190815260200160002060008573ffffffffffffffffffffffffffffffffffffffff1673ffffffffffffffffffffffffffffffffffffffff168152602001908152602001600020819055508273ffffffffffffffffffffffffffffffffffffffff163373ffffffffffffffffffffffffffffffffffffffff167f8c5be1e5ebec7d5bd14f71427d1e84f3dd0314c0f7b2291e5b200ac8c7c3b9258460405161036e9190610cd7565b60405180910390a36001905092915050565b60035481565b6000600560008573ffffffffffffffffffffffffffffffffffffffff1673ffffffffffffffffffffffffffffffffffffffff1681526020019081526020016000205482111561040a576040517f08c379a000000000000000000000000000000000000000000000000000000000815260040161040190610c97565b60405180910390fd5b600660008573ffffffffffffffffffffffffffffffffffffffff1673ffffffffffffffffffffffffffffffffffffffff16815260200190815260200160002060003373ffffffffffffffffffffffffffffffffffffffff1673ffffffffffffffffffffffffffffffffffffffff168152602001908152602001600020548211156104c9576040517f08c379a00000000000000000000000000000000000000000000000000000000081526004016104c090610c77565b60405180910390fd5b61051b82600560008773ffffffffffffffffffffffffffffffffffffffff1673ffffffffffffffffffffffffffffffffffffffff16815260200190815260200160002054610a3490919063ffffffff16565b600560008673ffffffffffffffffffffffffffffffffffffffff1673ffffffffffffffffffffffffffffffffffffffff168152602001908152602001600020819055506105b082600560008673ffffffffffffffffffffffffffffffffffffffff1673ffffffffffffffffffffffffffffffffffffffff16815260200190815260200160002054610a4a90919063ffffffff16565b600560008573ffffffffffffffffffffffffffffffffffffffff1673ffffffffffffffffffffffffffffffffffffffff1681526020019081526020016000208190555061068282600660008773ffffffffffffffffffffffffffffffffffffffff1673ffffffffffffffffffffffffffffffffffffffff16815260200190815260200160002060003373ffffffffffffffffffffffffffffffffffffffff1673ffffffffffffffffffffffffffffffffffffffff16815260200190815260200160002054610a3490919063ffffffff16565b600660008673ffffffffffffffffffffffffffffffffffffffff1673ffffffffffffffffffffffffffffffffffffffff16815260200190815260200160002060003373ffffffffffffffffffffffffffffffffffffffff1673ffffffffffffffffffffffffffffffffffffffff168152602001908152602001600020819055508273ffffffffffffffffffffffffffffffffffffffff168473ffffffffffffffffffffffffffffffffffffffff167fddf252ad1be2c89b69c2b068fc378daa952ba7f163c4a11628f55a4df523b3ef8460405161075f9190610cd7565b60405180910390a3600190509392505050565b60056020528060005260406000206000915090505481565b60045481565b6002805461079d90610e13565b80601f01602080910402602001604051908101604052809291908181526020018280546107c990610e13565b80156108165780601f106107eb57610100808354040283529160200191610816565b820191906000526020600020905b8154815290600101906020018083116107f957829003601f168201915b505050505081565b60008073ffffffffffffffffffffffffffffffffffffffff168373ffffffffffffffffffffffffffffffffffffffff16141561085957600080fd5b81600560003373ffffffffffffffffffffffffffffffffffffffff1673ffffffffffffffffffffffffffffffffffffffff1681526020019081526020016000205410156108db576040517f08c379a00000000000000000000000000000000000000000000000000000000081526004016108d290610cb7565b60405180910390fd5b61092d82600560003373ffffffffffffffffffffffffffffffffffffffff1673ffffffffffffffffffffffffffffffffffffffff16815260200190815260200160002054610a3490919063ffffffff16565b600560003373ffffffffffffffffffffffffffffffffffffffff1673ffffffffffffffffffffffffffffffffffffffff168152602001908152602001600020819055506109c282600560008673ffffffffffffffffffffffffffffffffffffffff1673ffffffffffffffffffffffffffffffffffffffff16815260200190815260200160002054610a4a90919063ffffffff16565b600560008573ffffffffffffffffffffffffffffffffffffffff1673ffffffffffffffffffffffffffffffffffffffff168152602001908152602001600020819055506001905092915050565b6006602052816000526040600020602052806000526040600020600091509150505481565b60008183610a429190610d64565b905092915050565b60008183610a589190610d0e565b905092915050565b600081359050610a6f81610f55565b92915050565b600081359050610a8481610f6c565b92915050565b600060208284031215610a9c57600080fd5b6000610aaa84828501610a60565b91505092915050565b60008060408385031215610ac657600080fd5b6000610ad485828601610a60565b9250506020610ae585828601610a60565b9150509250929050565b600080600060608486031215610b0457600080fd5b6000610b1286828701610a60565b9350506020610b2386828701610a60565b9250506040610b3486828701610a75565b9150509250925092565b60008060408385031215610b5157600080fd5b6000610b5f85828601610a60565b9250506020610b7085828601610a75565b9150509250929050565b610b8381610daa565b82525050565b6000610b9482610cf2565b610b9e8185610cfd565b9350610bae818560208601610de0565b610bb781610ea3565b840191505092915050565b6000610bcf602283610cfd565b9150610bda82610eb4565b604082019050919050565b6000610bf2601e83610cfd565b9150610bfd82610f03565b602082019050919050565b6000610c15601283610cfd565b9150610c2082610f2c565b602082019050919050565b610c3481610dd6565b82525050565b6000602082019050610c4f6000830184610b7a565b92915050565b60006020820190508181036000830152610c6f8184610b89565b905092915050565b60006020820190508181036000830152610c9081610bc2565b9050919050565b60006020820190508181036000830152610cb081610be5565b9050919050565b60006020820190508181036000830152610cd081610c08565b9050919050565b6000602082019050610cec6000830184610c2b565b92915050565b600081519050919050565b600082825260208201905092915050565b6000610d1982610dd6565b9150610d2483610dd6565b9250827fffffffffffffffffffffffffffffffffffffffffffffffffffffffffffffffff03821115610d5957610d58610e45565b5b828201905092915050565b6000610d6f82610dd6565b9150610d7a83610dd6565b925082821015610d8d57610d8c610e45565b5b828203905092915050565b6000610da382610db6565b9050919050565b60008115159050919050565b600073ffffffffffffffffffffffffffffffffffffffff82169050919050565b6000819050919050565b60005b83811015610dfe578082015181840152602081019050610de3565b83811115610e0d576000848401525b50505050565b60006002820490506001821680610e2b57607f821691505b60208210811415610e3f57610e3e610e74565b5b50919050565b7f4e487b7100000000000000000000000000000000000000000000000000000000600052601160045260246000fd5b7f4e487b7100000000000000000000000000000000000000000000000000000000600052602260045260246000fd5b6000601f19601f8301169050919050565b7f696e73756666696369656e7420416c6c6f77616e63652066726f6d206046726f60008201527f6d60000000000000000000000000000000000000000000000000000000000000602082015250565b7f46726f6d206861766520496e73756666696369656e742062616c616e63650000600082015250565b7f696e73756666696369656e742066756e64730000000000000000000000000000600082015250565b610f5e81610d98565b8114610f6957600080fd5b50565b610f7581610dd6565b8114610f8057600080fd5b5056fea2646970667358221220366b10fe74796fcedbcab8afe1c55af95cb4725524ff2ac6a6a43f07e2d3b97e64736f6c63430008040033",
  "immutableReferences": {},
  "source": "pragma solidity 0.8.4;\n\nimport \"@openzeppelin/contracts/utils/math/SafeMath.sol\";\n\ncontract Token {\n        using SafeMath for uint;\n\n        address owner;\n        string public name;\n        string public symbol;\n        uint256 public totalSupply;\n        uint256 public decimal;\n\n    mapping(address => uint256) public balanceOf;\n    mapping(address => mapping(address => uint256)) public allowance;\n\n    \n\n    event Transfer(address indexed from, address indexed to, uint256 value);\n\n    event Approval(\n        address indexed _owner,\n        address indexed _spender,\n        uint256 _value\n    );\n\n\n\n    constructor() {\n        name = \"Solid Token\";\n        symbol = \"STKN\";\n        totalSupply = 20000000 * (10 ** 18);\n        decimal = 18;\n        balanceOf[msg.sender] = totalSupply;\n    }\n\n    modifier onlyOwner {\n        require(msg.sender == owner, \"you are not the owner\");\n        _;\n    }\n\n    function transfer(address _to, uint256 _value) external returns (bool success) {\n        require(_to != address(0));\n        require(balanceOf[msg.sender] >= _value, \"insufficient funds\");\n        balanceOf[msg.sender] = balanceOf[msg.sender].sub(_value);\n        balanceOf[_to] = balanceOf[_to].add(_value);\n        return true;\n        emit Transfer(msg.sender, _to, _value);\n    }\n\n    function approve(address _spender, uint256 _value) public returns (bool success) {\n        allowance[msg.sender][_spender] = _value;    \n        emit Approval(msg.sender, _spender, _value);\n\n        return true;\n    }\n\n    function transferFrom(address _from, address _to, uint256 _value) public returns (bool success) {\n        require(_value <= balanceOf[_from], \"From have Insufficient balance\");\n        require(_value <= allowance[_from][msg.sender], \"insufficient Allowance from `From`\");\n        balanceOf[_from] = balanceOf[_from].sub(_value);\n        balanceOf[_to] = balanceOf[_to].add(_value);\n\n        allowance[_from][msg.sender] = allowance[_from][msg.sender].sub(_value) ;\n\n        emit Transfer(_from, _to, _value);\n\n        return true;\n\n    }\n\n}",
  "sourcePath": "/home/favourite/Desktop/workspace/Me/bootcamp/blockchain/src/contracts/Token.sol",
  "compiler": {
    "name": "solc",
    "version": "0.8.4+commit.c7e474f2.Emscripten.clang"
  },
  "schemaVersion": "3.4.7",
  "updatedAt": "2022-07-18T15:34:40.026Z",
  "networkType": "ethereum",
  "devdoc": {
    "kind": "dev",
    "methods": {},
    "version": 1
  },
  "userdoc": {
    "kind": "user",
    "methods": {},
    "version": 1
  }
}